:100000000C94BA000C94C00C0C94550C0C945E0922
:100010000C94460A0C94C00C0C94C00C0C94C00CAC
:100020000C94C00C0C94C00C0C94C00C0C94C00C20
:100030000C94C00C0C94C00C0C94C00C0C94C00C10
:100040000C94C00C0C94C00C0C94C00C0C94C00C00
:100050000C94C00C0C94C00C0C94C00C0C94C00CF0
:100060000C94C00C0C94C00C0C94C00C0C94C00CE0
:100070000C94C00C0C941A090C94C00C0C94760AC5
:100080000C94A30A0C94BD0B0C94C00C0C94C00CE3
:100090000C94C00C0C94C00C0C94C00C0C94C00CB0
:1000A0000C94C00C0C94C00C0C94C00C0C94C00CA0
:1000B0000C94C00C0C94C00C0C94C00C0C94C00C90
:1000C0000C94C00C0C94C00C0C94C00C0C94C00C80
:1000D0000C94C00C0C94C00C0C94C00C0C94C00C70
:1000E0000C94C00C0C94C00C600B5D0B570B5D0B9B
:1000F0005D0B5D0B5D0B5D0B4E0B5D0B5D0B5D0BCF
:100100005D0B5D0B5D0B540B5D0B5D0B510B5D0BC4
:100110005D0B5D0B5A0B5D0B5D0B5D0B5D0B5D0BA2
:100120005D0B5D0B5D0B5D0B600B5D0B570B5D0B92
:100130005D0B5D0B5D0B5D0B4E0B5D0B5D0B5D0B8E
:100140005D0B5D0B5D0B540B5D0B5D0B510B5D0B84
:100150005D0B5D0B5A0B40004006804006401500C9
:10016000198C4015402D80402D403100199B4031A5
:10017000403E800011241FBECFEFCDBFDFE7DEBFC2
:10018000E6E5F1E041E019C0B791A79137912791D9
:10019000079107FD0EC097918791EF01F92FE82F86
:1001A0000BBF07900D92A217B307D9F7FE011BBE34
:1001B00004C01D92A217B307E1F7E337F40721F754
:0C01C0000E94320C0C94E400F894FFCF75
:1001CC000A0D00456E746572696E67206465657012
:1001DC0020736C65657020616E642073686F727437
:1001EC002077616B6520757020666F722073656E69
:1001FC00736F722072656164696E672070726F67CD
:10020C0072616D2E0A0D005468652070726F6772F2
:10021C00616D2077696C6C2072756E20666F722030
:10022C00342072656164696E67206379636C6573F1
:10023C002E205761697420666F7220746865207077
:10024C00726F6772616D20746F2066696E69736876
:10025C00206265666F72652069737375696E6720BD
:10026C006E657720636F6D6D616E64732E0A0D0081
:10027C0052656164696E672073656E736F7273206B
:10028C0025642E0A0D0050726573732061206B6516
:10029C007920636F72726573706F6E64696E67201C
:1002AC00746F2061206D6F646520746F20656E74AF
:1002BC0065722074686174206D6F6465206F7220A4
:1002CC00616E79206F74686572206B657920746F2C
:1002DC002073656520746865206D656E7520616797
:1002EC0061696E2E0A0D00456E746572696E672029
:1002FC006D6F6465206379636C696E672070726FD3
:10030C006772616D2E205761697420666F7220745C
:10031C0068652070726F6772616D20746F20656EF6
:10032C0064206265666F72652073656E64696E67C2
:10033C00206E657720646174612E0A0D00456E7421
:10034C006572696E6720416374697665206D6F64B0
:10035C00652E0A0D00456E746572696E67204964DE
:10036C006C6520736C656570206D6F64652E0A0D6D
:10037C0000456E746572696E67205374616E6462B9
:10038C007920736C656570206D6F64652E0A0D00A5
:10039C00456E746572696E6720506F776572204484
:1003AC006F776E20736C656570206D6F64652E0AB7
:1003BC000D0046696E6973686564206379636C69C6
:1003CC006E67207468726F75676820746865206D3D
:1003DC006F6465732E0A0D00456E746572696E67E5
:1003EC0020706F77657220646F776E20736C656513
:1003FC0070206D6F64652E20596F752063616E20BF
:10040C006F6E6C7920657869742074686973206DDF
:10041C006F64652077697468206120627574746FED
:10042C006E2070726573732E0A0D00456E746572C2
:10043C00696E67207374616E64627920736C656594
:10044C0070206D6F64652E20596F752063616E206E
:10045C006F6E6C7920657869742074686973206D8F
:10046C006F64652077697468206120627574746F9D
:10047C006E2070726573732E0A0D00456E74657272
:10048C00696E672069646C6520736C656570206D9E
:10049C006F64652E0A0D00416374697665206D6F7B
:1004AC0064652E0A0D002A2A2A2A2A2A2A2A2A2A8E
:1004BC002A2A2A2A2A2A2A2A2A2A2A2A2A2A2A2A90
:1004CC002A2A2A0A0D00536C656570204D6F6465ED
:1004DC0073206578616D706C650A0D0050726573E0
:1004EC00732061206B657920636F72726573706F16
:1004FC006E64696E6720746F206120736C65657023
:10050C00206D6F64650A0D00286361736520696E48
:10051C0073656E736974697665293A0A0D0020411A
:10052C00202D20416374697665206D6F64652028E9
:10053C006E6F7420696E20736C656570290A0D00EE
:10054C002049202D2049646C6520536C6565702012
:10055C006D6F64650A0D002053202D205374616E5D
:10056C0064627920536C656570206D6F646520281A
:10057C0077616B65207570207468726F7567682081
:10058C00627574746F6E290A0D002050202D205056
:10059C006F77657220446F776E20536C65657020A1
:1005AC006D6F6465202877616B65207570207468A9
:1005BC00726F75676820627574746F6E290A0D000E
:1005CC002043202D204379636C65207468726F750D
:1005DC00676820746865206D6F6465730A0D002070
:1005EC0057202D204465657020736C656570206103
:1005FC006E642073686F72742077616B652D7570F3
:10060C0020746F2073696D756C61746520726561FF
:10061C0064696E672073656E736F72730A0D005098
:10062C007265737320616E79206B6579206F72200F
:10063C0074686520627574746F6E206F6E20626FC3
:10064C0061726420746F2073746F702074686520FD
:10065C0063757272656E742064656D6F2E0A0D0081
:10066C002F923F924F926F927F928F929F92AF9266
:10067C00BF92CF92DF92EF92FF920F931F93CF9383
:10068C00DF93CDB7DEB76297CDBFDEBF6C013A0109
:10069C00862E7901FC0117821086848181FFEBC1C3
:1006AC009E012F5F3F4F2C873D87C901A0E8888BA7
:1006BC00998BAA8B9FE3992EF301582D0E94A60CBF
:1006CC00862F662309F4D3C1482D93012F5F3F4F2A
:1006DC004F4F653219F03901842E0BC0F901542F9C
:1006EC000E94A60C862F92E0690E711C811C65324B
:1006FC0029F4B60190E00E949D09DECFB12C00E0F8
:10070C0010E01032A0F48B3269F030F4803259F0E2
:10071C00833269F410612CC08D3239F0803339F496
:10072C00116026C01260146023C0186021C017FD30
:10073C002AC090ED980F9A3078F416FF06C0AAE004
:10074C00BA9E900D1124B92E13C0EAE00E9F900DA5
:10075C001124092F10620CC08E3221F416FD87C1B2
:10076C00106406C08C3611F4106802C0883659F437
:10077C00F301582D0E94A60C862FFFEF6F1A7F0AEB
:10078C008F0A6111BECF982F9F7D9554933028F41A
:10079C0024E0E20EF11C99820FC0833631F08337CE
:1007AC0091F0833509F064C027C0F70180818983FB
:1007BC0097012E5F3F4F7901288839884A88AA24EF
:1007CC00A394B12C17C0A7014D5F5F4F4E875F8775
:1007DC00F70120803180428016FF03C04B2D50E082
:1007EC0002C04FEF5FEF842DB1010E94A10B5C01A1
:1007FC00EE84FF841F7718C097012D5F3F4F2E8723
:10080C003F87F70120803180428016FF03C04B2DBB
:10081C0050E002C04FEF5FEF842DB1010E94A10B9D
:10082C005C011068EE84FF8413FD1EC0802F90E0E5
:10083C00A816B906C8F4B60180E290E00E949D09A2
:10084C000150F4CFF101542D0E94A60C862FFFEF1E
:10085C002F1A3F0A4F0AB60190E00E949D09011120
:10086C00015021E0A21AB108A114B10459F7F5C046
:10087C00843611F0893671F5F70117FF08C06081D5
:10088C0071818281938197012C5F3F4F09C06081F8
:10089C007181072E000C880B990B97012E5F3F4F2F
:1008AC0079011F76312E97FF0AC09095809570952F
:1008BC0061957F4F8F4F9F4F312F3068332E2AE039
:1008CC0030E0AE014F5F5F4F0E942E08482E4C85E2
:1008DC00441A4AC0853729F41F7EA12E2AE030E045
:1008EC0025C0512F597FA52E8F36C1F018F48835AD
:1008FC0079F0BDC0803719F0883721F0B8C0852F4A
:10090C008061A82EA4FE0DC09A2D9460A92E09C05A
:10091C0014FF0AC0A52FA660AA2E06C028E030E05E
:10092C0005C020E130E002C020E132E0F701A7FE73
:10093C0008C06081718182819381A7014C5F5F4FF8
:10094C0007C06081718180E090E0A7014E5F5F4F2E
:10095C007A01AE014F5F5F4F0E942E08482E5C85D6
:10096C00451A8A2D8F77382E36FE0DC0932D9E7F1B
:10097C00A92E4B1458F434FE0BC032FC09C0A32D25
:10098C00AE7EAA2E05C0142DA32C03C0142D01C0BD
:10099C001B2DA4FE0EC0FE01E40DF11D80818033E1
:1009AC0021F4EA2DE97EAE2E08C0A2FE05C01E5F22
:1009BC0004C08A2D867809F01F5FA3FC11C0A0FE2D
:1009CC0006C0101788F4040DB02EB11A0EC0101703
:1009DC0060F4B60180E290E00E949D091F5FF7CFA2
:1009EC00101718F4011B02C0B42C00E0A4FE10C0B8
:1009FC00B60180E390E00E949D09A2FE17C0A1FC05
:100A0C0003C088E790E002C088E590E0B6010CC016
:100A1C008A2D867859F0A1FE02C08BE201C080E2DB
:100A2C00A7FC8DE2B60190E00E949D094B1438F4AE
:100A3C00B60180E390E00E949D09BA94F7CF4A94E6
:100A4C00E1E0F0E0EC0FFD1FE40DF11D8081B6013B
:100A5C0090E00E949D094110F2CF002309F42CCEA6
:100A6C00B60180E290E00E949D090150F6CFF6019C
:100A7C008781908502C08FEF9FEF6296CDBFDEBF5E
:100A8C00DF91CF911F910F91FF90EF90DF90CF905E
:100A9C00BF90AF909F908F907F906F904F903F90B2
:040AAC002F900895EA
:100AB0002F923F924F926F927F928F92CF92DF92BE
:100AC000EF921F93CF93DF938CEC91E0A0E0AF9374
:100AD0009F938F930E941D0C83EF92E0A0E0AF9351
:100AE0009F938F930E941D0C8FED9EE20197F1F76B
:100AF00000C0000080E4809325081092570489E527
:100B00008093500110923D400F900F900F900F90E6
:100B10000F900F9010E00F2EFCECCF2EF1E0DF2EA7
:100B2000F0E0EF2EF02DC0E5D0E00F2EFEEB2F2EE3
:100B3000F3E03F2EF0E04F2EF02D0F2EFDE76F2E4D
:100B4000F3E07F2EF0E08F2EF02D8DC080913D40A0
:100B5000811103C01530D0F38CC010923D401F5F4F
:100B6000EF92DF92CF920E941D0C0F900F900F908A
:100B70001230B1F018F4113039F065C0133061F162
:100B8000143009F443C05FC089E493E0A0E0AF9360
:100B90009F938F930E941D0C0F900F900F9063C036
:100BA00081E693E0A0E0AF939F938F930E941D0C8A
:100BB0008FED9EE20197F1F700C000008881897FE8
:100BC0008883888181608883889588818E7F8883E7
:100BD0000F900F900F9047C08F927F926F920E945C
:100BE0001D0C8FED9EE20197F1F700C00000888197
:100BF000897F8260888388818160888388958881E5
:100C00008E7F88830F900F900F902DC08CE993E01A
:100C1000A0E0AF939F938F930E941D0C8FED9EE2F7
:100C20000197F1F700C000008881897F8460888384
:100C3000888181608883889588818E7F88830F90E2
:100C40000F900F9010C04F923F922F920E941D0C58
:100C50008FED9EE20197F1F700C000000F900F901A
:100C60000F90153030F480913D40882309F46ECF09
:100C700074CF1092500180ED8093250889E0809315
:100C8000570482E992E0A0E0AF939F938F930E9474
:100C90001D0C0F900F900F900E949F0C8823E1F382
:100CA0000E94D60BDF91CF911F91EF90DF90CF90F4
:0E0CB0008F907F906F904F903F902F900895FF
:100CBE000F931F93CF93DF930E94D90940E054E026
:100CCE006FEFFA01608320E234E0F901608380E483
:100CDE0094E07DE7FC017083C0E6D4E06883A0E871
:100CEE00B4E06C9300EA14E0F8016083FA01148218
:100CFE00F901148260E4FC0164831C8214961C9238
:100D0E001497F8011482FA01108A118A128A138A32
:100D1E00148A158A168A178AF901108A118A128A7C
:100D2E00138A148A158A168A178AFC01108A118A68
:100D3E00128A138A148A158A168A69E0678B188AB2
:100D4E00198A1A8A1B8A1C8A1D8A1E8A1F8A509625
:100D5E001C92509751961C92519752961C925297F4
:100D6E0053961C92539754961C92549755961C92D8
:100D7E00559756961C92569757961C925797F80170
:100D8E00108A118A128A138A148A158A168A178A69
:100D9E00FA011386168615861486F90113861686B1
:100DAE0015861486FC0113861686158614861B86F8
:100DBE001E861D861C861B961C921B971E961C92C9
:100DCE001E971D961C921D971C961C92F801138659
:100DDE00168615861486E0EEF5E0118611821082D5
:100DEE001482168217821086158212821382128640
:100DFE0082EC9CE080932B4090932C4083EC9CE003
:100E0E008093294090932A4084EC9CE08093274065
:100E1E009093284085EC9CE080932540909326404B
:0A0E2E00DF91CF911F910F910895FD
:100E38006F927F928F92EF92FF920F931F93CF93AF
:100E48008CEC91E0A0E0AF939F938F930E941D0CD0
:100E58008FEC91E0A0E0AF939F938F930E941D0CBD
:100E680083E192E0A0E0AF939F938F930E941D0CC3
:100E78008FED9EE20197F1F700C0000080E48093B7
:100E880025081092570489E580935001EDB7FEB705
:100E98003996EDBFFEBFEE24E394F12CC0E000E5E7
:100EA80010E00F2EFCE76F2EF2E07F2EF0E08F2E81
:100EB800F02D2DC080913D40811103C0C430D0F386
:100EC8002BC010923D40CF5FF8018081897F8460FC
:100ED8008083808181608083889580818E7F8083F4
:100EE800FF92EF928F927F926F920E941D0C8FED6E
:100EF8009EE20197F1F700C000009FEFE91AF90A96
:100F08000F900F900F900F900F90C43029F08091A0
:100F18003D40882379F2D5CF1092500180ED80931F
:100F2800250889E08093570482E992E0A0E0AF9316
:100F38009F938F930E941D0C0F900F900F900E940B
:100F48009F0C8823E1F30E94D60BCF911F910F913C
:0C0F5800FF90EF908F907F906F900895B5
:100F6400CF92DF92EF928CEC91E0A0E0AF939F934D
:100F74008F930E941D0C0F2EF2EBCF2EF4E0DF2E88
:100F8400F0E0EF2EF02DEF92DF92CF920E941D0C35
:100F940082ED94E0A0E0AF939F938F930E941D0C89
:100FA40088EE94E0A0E0AF939F938F930E941D0C72
:100FB40084E195E0A0E0AF939F938F930E941D0C72
:100FC4008AE295E0A0E0AF939F938F930E941D0C5B
:100FD4008CE495E0A0E0AF939F938F930E941D0C47
:100FE40083E695E0A0E0AF939F938F930E941D0C3E
:100FF40086E995E0A0E0AF939F938F930E941D0C28
:101004008CEC95E0A0E0AF939F938F930E941D0C0E
:101014008BEE95E0A0E0AF939F938F930E941D0CFD
:101024008DB79EB781968DBF9EBFEF92DF92CF9210
:101034000E941D0C8BE296E0A0E0AF939F938F93E8
:101044000E941D0C0F900F900F900F900F900F9017
:08105400EF90DF90CF900895AA
:10105C00FA01AA27283051F1203181F1E8946F93DD
:10106C006E7F6E5F7F4F8F4F9F4FAF4FB1E03ED083
:10107C00B4E03CD0670F781F891F9A1FA11D680F21
:10108C00791F8A1F911DA11D6A0F711D811D911D54
:10109C00A11D20D009F468943F912AE0269F1124C9
:1010AC003019305D3193DEF6CF010895462F47702D
:1010BC00405D4193B3E00FD0C9F7F6CF462F4F7088
:1010CC00405D4A3318F0495D31FD4052419302D0E6
:1010DC00A9F7EACFB4E0A69597958795779567958C
:1010EC00BA95C9F700976105710508959B01AC018C
:1010FC000A2E06945795479537952795BA95C9F7B3
:0C110C00620F731F841F951FA01D089523
:10111800CF92DF92EF920F2EFCECCF2EF1E0DF2E74
:10112800F0E0EF2EF02DEF92DF92CF920E941D0C8F
:1011380084EE93E0A0E0AF939F938F930E941D0CE1
:101148008FED9EE20197F1F700C00000E0E5F0E0C6
:101158008081897F84608083808181608083889595
:1011680080818E7F8083EF92DF92CF920E941D0C48
:1011780082E992E0A0E0AF939F938F930E941D0CA9
:101188008DB79EB70C968DBF9EBF0E949F0C88237B
:0E119800E1F30E94D60BEF90DF90CF90089508
:1011A600CF92DF92EF920F2EFCECCF2EF1E0DF2EE6
:1011B600F0E0EF2EF02DEF92DF92CF920E941D0C01
:1011C60087E394E0A0E0AF939F938F930E941D0C5A
:1011D6008FED9EE20197F1F700C00000E0E5F0E038
:1011E6008081897F82608083808181608083889509
:1011F60080818E7F8083EF92DF92CF920E941D0CBA
:1012060082E992E0A0E0AF939F938F930E941D0C1A
:101216008DB79EB70C968DBF9EBF0E949F0C8823EC
:0E122600E1F30E94D60BEF90DF90CF90089579
:101234001F920F920FB60F9211240BB60F922F9399
:101244003F934F935F936F937F938F939F93AF934A
:10125400BF93EF93FF935E9B05C0E0912B40F09109
:101264002C4009955F9B05C0E0912940F0912A40EC
:101274000995589B05C0E0912740F09128400995B5
:10128400599B05C0E0912540F091264009958FEFC8
:101294008BB9FF91EF91BF91AF919F918F917F9106
:1012A4006F915F914F913F912F910F900BBE0F90D3
:0812B4000FBE0F901F9018956A
:1012BC001F920F920FB60F9211240BB60F922F9311
:1012CC003F934F935F936F937F938F939F93AF93C2
:1012DC00BF93EF93FF938091430180FF07C0E09190
:1012EC003540F0913640309709F0099580914301D3
:1012FC0081FF07C0E0913340F0913440309709F002
:10130C00099583E080934301FF91EF91BF91AF91D9
:10131C009F918F917F916F915F914F913F912F9101
:0E132C000F900BBE0F900FBE0F901F901895E4
:10133A000F931F93CF93DF93FB01248121FD03C0F9
:10134A008FEF9FEF2CC022FF16C047815085258161
:10135A0036814217530744F4A081B1819D012F5F62
:10136A003F4F208331838C93278130852F5F3F4FF6
:10137A002783308714C08B01EC01FB010184F285BD
:10138A00E02D0995892BE1F6D80117968D919C914C
:10139A001897019617968D939C931897CE01DF9113
:0813AA00CF911F910F910895EE
:1013B200E0E9F4E0808188608193E83984E0F8070D
:1013C200C9F7E0EBF4E0808188608193E83B84E038
:1013D200F807C9F7E0E1F4E0808188608193E831A1
:1013E20084E0F807C9F7E0E3F4E080818860819344
:1013F200E83384E0F807C9F7E0E5F4E0808188602B
:101402008193E83584E0F807C9F7E0E7F4E08081EA
:0E14120088608193E83784E0F807C9F70895F1
:101420008CEC91E0A0E0AF939F938F930E941D0CF2
:1014300087E894E0A0E0AF939F938F930E941D0CE8
:1014400082E992E0A0E0AF939F938F930E941D0CDE
:101450008FED9EE20197F1F700C00000E0E5F0E0BB
:101460008081897F8083808181608083889580816D
:101470008E7F80838DB79EB709968DBF9EBF0E94D9
:0C1480009F0C8823E1F30E94D60B089516
:10148C001F920F920FB60F9211240BB60F922F933F
:10149C003F934F935F936F937F938F939F93AF93F0
:1014AC00BF93EF93FF93E0913140F091324030972E
:1014BC0009F0099581E080935301FF91EF91BF9161
:1014CC00AF919F918F917F916F915F914F913F91D0
:1014DC002F910F900BBE0F900FBE0F901F90189571
:1014EC001F920F920FB60F9211240BB60F922F93DF
:1014FC003F934F935F936F937F938F939F93AF9390
:10150C00BF93EF93FF93E0912F40F09130403097D1
:10151C0009F00995FF91EF91BF91AF919F918F9138
:10152C007F916F915F914F913F912F910F900BBED7
:0A153C000F900FBE0F901F9018953E
:101546001F920F920FB60F9211240BB60F922F9384
:101556003F934F935F936F937F938F939F93AF9335
:10156600BF93EF93FF93E0912D40F0912E4030977B
:1015760009F00995FF91EF91BF91AF919F918F91DE
:101586007F916F915F914F913F912F910F900BBE7D
:0A1596000F900FBE0F901F901895E4
:1015A00040E068ED88E790E00E94AD0C40E068ED17
:1015B0008CE790E00E94AD0C40E168ED81E690E0A0
:1015C0000E94AD0C40E068ED80E690E00E94AD0C1A
:1015D00040E068ED83E690E00E94AD0C44E268EDE7
:1015E00088E690E00E94AD0C40E068ED82E690E075
:0815F0000E94AD0C80E008959B
:1015F8008CEC91E0A0E0AF939F938F930E941D0C19
:1016080083EA94E0A0E0AF939F938F930E941D0C10
:1016180082E992E0A0E0AF939F938F930E941D0C04
:101628008DB79EB709968DBF9EBF0E949F0C8823D9
:08163800E1F30E94D60B0895B6
:10164000E0E2F8E081E493E08087918780ED858394
:1016500080EC868383E0878313861486168615863E
:1016600010923B4010923C4010923A401092384009
:10167000109239401092374086E090E48093024007
:0616800090930340089561
:1016860090E0FC01E154F109E733F10598F4EC58D8
:10169600FF4F0C94860C80E19AE0089583ED98E064
:1016A60008958CE898E0089588E595E008958CE122
:1016B60097E008958DE79CE008958CEF9AE00895F1
:1016C60080913740882389F0E0913840EF5FE770DA
:1016D600E0933840F0E0EB5EFF4B80818093220878
:1016E60080913740815080933740809137408111F7
:0E16F60005C0E0E2F8E085818F7D85830895D0
:10170400209139402F5F2770909137409830E1F352
:10171400E22FF0E0EB5EFF4B8083209339400FB65D
:10172400F8940F92809137408F5F809337400F90E9
:0E1734000FBEE0E2F8E08581806285830895B3
:10174200CF92DF92EF926B01E82E9A01A82FCB0184
:101752002115310531F48C199D09EF90DF90CF905E
:101762000895FC015A2F0E94A60C6623A1F301964C
:08177200A11D21503109ECCF4B
:10177A001F920F920FB60F9211240BB60F928F93EE
:10178A00EF93FF93E0E2F8E0848180648483FF9121
:10179A00EF918F910F900BBE0F900FBE0F901F907D
:0217AA00189590
:1017AC0080913A408823E1F3E0913B40EF5FE77092
:1017BC00E0933B400FB6F8940F9280913A408150E1
:1017CC0080933A400F900FBEF0E0E35EFF4B8081B8
:0217DC0008956E
:1017DE00E0E4F1E081818111FDCFE0E4F1E01486D7
:1017EE001586108611861286138681E087831282F3
:1017FE0081898111FDCF81E08093520180E00895AF
:10180E0090912008E0913C40EF5FE77080913B4063
:10181E00E81759F0E0933C40F0E0E35EFF4B908315
:0C182E0080913A408F5F80933A4008950B
:10183A00CF93DF93CDB7DEB79E012B5F3F4FF90100
:10184A004191519161919F01809102409091034091
:0A185A000E943603DF91CF9108953C
:101864000E94440C8CEB9CE00E94B70C80E0811138
:1018740004C00E94B2070E94D60B0E94430BFC01D5
:041884000995F5CFFE
:101888000E945F060E94710C0E94970C0E948F0CA8
:101898000E94D00A0E94200B0E94EF0B0E94640C49
:0218A8000895A1
:1018AA001F920F920FB60F9211248F9381E08093AB
:0E18BA008A008F910F900FBE0F901F9018950F
:1018C80040E068ED80E191E00E94AD0CE0E1F1E0DC
:0A18D80012821382789480E00895D4
:1018E20040E068ED80E890E00E94AD0CE0E8F0E0B6
:0818F2001186108680E00895C4
:1018FA000E94B2070E949F0C8823E1F30E94D60B34
:02190A0008953E
:10190C00EE0FFF1F0024001C0BBE0790F691E02D7C
:02191C0009942C
:10191E0040E068ED80E590E00E94AD0C80E0089517
:10192E0040E068ED80E091E00E94AD0C80E008950B
:0E193E0090913A4081E0911101C080E008953F
:0E194C0057FD03C05BBF679108956081089549
:0A195A001BBEFC0164BF408308952A
:0A1964000E94820B80E090E00895DD
:0A196E0080933140909332400895B9
:0819780081E080933D400895D9
:041980000C940000C3
:021984000895C4
:021986000895C2
:021988000895C0
:02198A000895BE
:0F198C00000000000200000000B20C000000008C
:02199B00630BDC
:02199D00070C35
:02000004008278
:090000000000000000C000000037
:00000001FF
